{
  "contractName": "MyContract",
  "abi": [
    {
      "constant": true,
      "inputs": [],
      "name": "numb1",
      "outputs": [
        {
          "internalType": "uint256",
          "name": "",
          "type": "uint256"
        }
      ],
      "payable": false,
      "stateMutability": "view",
      "type": "function"
    },
    {
      "constant": true,
      "inputs": [],
      "name": "numb2",
      "outputs": [
        {
          "internalType": "uint256",
          "name": "",
          "type": "uint256"
        }
      ],
      "payable": false,
      "stateMutability": "view",
      "type": "function"
    },
    {
      "constant": true,
      "inputs": [],
      "name": "rand",
      "outputs": [
        {
          "internalType": "uint256",
          "name": "",
          "type": "uint256"
        }
      ],
      "payable": false,
      "stateMutability": "view",
      "type": "function"
    },
    {
      "constant": false,
      "inputs": [],
      "name": "RegMe",
      "outputs": [],
      "payable": false,
      "stateMutability": "nonpayable",
      "type": "function"
    },
    {
      "constant": false,
      "inputs": [
        {
          "internalType": "uint256",
          "name": "number",
          "type": "uint256"
        }
      ],
      "name": "TryNumber",
      "outputs": [],
      "payable": false,
      "stateMutability": "nonpayable",
      "type": "function"
    },
    {
      "constant": false,
      "inputs": [],
      "name": "DeadermineTheWinner",
      "outputs": [],
      "payable": false,
      "stateMutability": "nonpayable",
      "type": "function"
    },
    {
      "constant": true,
      "inputs": [],
      "name": "GetRez",
      "outputs": [
        {
          "internalType": "uint256",
          "name": "w1nn3r",
          "type": "uint256"
        }
      ],
      "payable": false,
      "stateMutability": "view",
      "type": "function"
    },
    {
      "constant": true,
      "inputs": [],
      "name": "WhoAmI",
      "outputs": [
        {
          "internalType": "uint256",
          "name": "number",
          "type": "uint256"
        }
      ],
      "payable": false,
      "stateMutability": "view",
      "type": "function"
    }
  ],
  "bytecode": "0x6080604052600080556005805534801561001857600080fd5b50610653806100286000396000f3fe608060405234801561001057600080fd5b50600436106100885760003560e01c8063832d607c1161005b578063832d607c146100f1578063883d1e791461011f578063d017c11d1461013d578063dcbe481e1461014757610088565b8063290e4a7a1461008d57806337c82ada146100975780633b3dca76146100b557806348dfcbf0146100d3575b600080fd5b610095610165565b005b61009f6101fb565b6040518082815260200191505060405180910390f35b6100bd610205565b6040518082815260200191505060405180910390f35b6100db61020b565b6040518082815260200191505060405180910390f35b61011d6004803603602081101561010757600080fd5b81019080803590602001909291905050506102cb565b005b610127610450565b6040518082815260200191505060405180910390f35b610145610456565b005b61014f610618565b6040518082815260200191505060405180910390f35b60035460055410156101835760055460035403600381905550610191565b600354600554036003819055505b60045460055410156101af57600554600454036004819055506101bd565b600454600554036004819055505b60045460035411156101d65760026006819055506101f9565b60045460035410156101ef5760016006819055506101f8565b60006006819055505b5b565b6000600654905090565b60055481565b6000600160009054906101000a900473ffffffffffffffffffffffffffffffffffffffff1673ffffffffffffffffffffffffffffffffffffffff163373ffffffffffffffffffffffffffffffffffffffff16141561026c57600190506102c8565b600260009054906101000a900473ffffffffffffffffffffffffffffffffffffffff1673ffffffffffffffffffffffffffffffffffffffff163373ffffffffffffffffffffffffffffffffffffffff1614156102c757600290505b5b90565b6000600160009054906101000a900473ffffffffffffffffffffffffffffffffffffffff1673ffffffffffffffffffffffffffffffffffffffff161415801561034d57506000600260009054906101000a900473ffffffffffffffffffffffffffffffffffffffff1673ffffffffffffffffffffffffffffffffffffffff1614155b61035657600080fd5b600160009054906101000a900473ffffffffffffffffffffffffffffffffffffffff1673ffffffffffffffffffffffffffffffffffffffff163373ffffffffffffffffffffffffffffffffffffffff1614156103c957806003819055506000808154809291906001019190505550610439565b600260009054906101000a900473ffffffffffffffffffffffffffffffffffffffff1673ffffffffffffffffffffffffffffffffffffffff163373ffffffffffffffffffffffffffffffffffffffff161415610438578060048190555060008081548092919060010191905055505b5b6002600054141561044d5761044c610165565b5b50565b60045481565b600160009054906101000a900473ffffffffffffffffffffffffffffffffffffffff1673ffffffffffffffffffffffffffffffffffffffff163373ffffffffffffffffffffffffffffffffffffffff16141580156105025750600260009054906101000a900473ffffffffffffffffffffffffffffffffffffffff1673ffffffffffffffffffffffffffffffffffffffff163373ffffffffffffffffffffffffffffffffffffffff1614155b61050b57600080fd5b6000600160009054906101000a900473ffffffffffffffffffffffffffffffffffffffff1673ffffffffffffffffffffffffffffffffffffffff1614156105925733600160006101000a81548173ffffffffffffffffffffffffffffffffffffffff021916908373ffffffffffffffffffffffffffffffffffffffff160217905550610616565b6000600260009054906101000a900473ffffffffffffffffffffffffffffffffffffffff1673ffffffffffffffffffffffffffffffffffffffff1614156106155733600260006101000a81548173ffffffffffffffffffffffffffffffffffffffff021916908373ffffffffffffffffffffffffffffffffffffffff1602179055505b5b565b6003548156fea265627a7a72315820c6f2a8098e4e782815e734e38777957aa539253a856691c4aec6fb7cea4c325a64736f6c63430005100032",
  "source": "pragma solidity >=0.4.22 <0.9.0;\r\n\r\ncontract MyContract\r\n{\r\n    uint count = 0;\r\n    address player1;\r\n    address player2;\r\n    uint public numb1;\r\n    uint public numb2;\r\n    uint public rand = 5;\r\n    uint winner;\r\n    // int[] winnerEach;\r\n\r\n\r\n    // event GameEvent(address player);\r\n    // event WinEvent(int winnerNumber);\r\n    \r\n    modifier isRegistered() {\r\n        require(msg.sender != player1 && msg.sender != player2);\r\n        _;\r\n    }\r\n\r\n    modifier isBothReg() {\r\n        require((int(player1) != 0) && (int(player2) != 0));\r\n        _;\r\n    }\r\n\r\n    function RegMe() isRegistered() public {\r\n        if (int(player1) == 0)\r\n            player1 = msg.sender;\r\n        else if (int(player2) == 0)\r\n            player2 = msg.sender;\r\n    }\r\n\r\n    function TryNumber(uint number) isBothReg() public {\r\n        if (msg.sender == player1) {\r\n            numb1 = number;\r\n            count++;\r\n        } else if (msg.sender == player2) {\r\n            numb2 = number;\r\n            count++;\r\n        }\r\n        if (count == 2) {\r\n            DeadermineTheWinner();\r\n        }\r\n    }\r\n\r\n    function DeadermineTheWinner() public {\r\n        if (rand < numb1) {\r\n            numb1 = numb1 - rand;\r\n        } else {\r\n            numb1 = rand - numb1;\r\n        }\r\n        if (rand < numb2) {\r\n            numb2 = numb2 - rand;\r\n        } else {\r\n            numb2 = rand - numb2;\r\n        }\r\n\r\n        if (numb1 > numb2) {\r\n            winner = 2;\r\n        } else if (numb1 < numb2) {\r\n            winner = 1;\r\n        } else \r\n        {\r\n            winner = 0;\r\n        }\r\n    }\r\n\r\n    function GetRez() public view returns (uint w1nn3r) {\r\n        w1nn3r = winner;\r\n    }\r\n\r\n    function WhoAmI() public view returns (uint number) {\r\n        if (msg.sender == player1) number = 1;\r\n        else if (msg.sender == player2) number = 2;\r\n    }\r\n\r\n}",
  "sourcePath": "C:/Users/izmay/Laba1Truffle/contracts/MyContract.sol",
  "compiler": {
    "name": "solc",
    "version": "0.5.16+commit.9c3226ce.Emscripten.clang"
  },
  "schemaVersion": "3.3.4",
  "updatedAt": "2021-04-10T15:08:34.478Z",
  "networkType": "ethereum",
  "devdoc": {
    "methods": {}
  },
  "userdoc": {
    "methods": {}
  }
}