{
  "contractName": "MyContract",
  "abi": [
    {
      "inputs": [
        {
          "internalType": "address",
          "name": "tokenAddr",
          "type": "address"
        }
      ],
      "payable": false,
      "stateMutability": "nonpayable",
      "type": "constructor"
    },
    {
      "anonymous": false,
      "inputs": [
        {
          "indexed": false,
          "internalType": "uint256",
          "name": "random",
          "type": "uint256"
        }
      ],
      "name": "ShowRandomVal",
      "type": "event"
    },
    {
      "anonymous": false,
      "inputs": [
        {
          "indexed": false,
          "internalType": "address",
          "name": "player",
          "type": "address"
        }
      ],
      "name": "WhoPushed",
      "type": "event"
    },
    {
      "constant": true,
      "inputs": [],
      "name": "Token",
      "outputs": [
        {
          "internalType": "contract TokenOBT",
          "name": "",
          "type": "address"
        }
      ],
      "payable": false,
      "stateMutability": "view",
      "type": "function"
    },
    {
      "constant": true,
      "inputs": [],
      "name": "numb1",
      "outputs": [
        {
          "internalType": "uint256",
          "name": "",
          "type": "uint256"
        }
      ],
      "payable": false,
      "stateMutability": "view",
      "type": "function"
    },
    {
      "constant": true,
      "inputs": [],
      "name": "numb2",
      "outputs": [
        {
          "internalType": "uint256",
          "name": "",
          "type": "uint256"
        }
      ],
      "payable": false,
      "stateMutability": "view",
      "type": "function"
    },
    {
      "constant": true,
      "inputs": [],
      "name": "rand",
      "outputs": [
        {
          "internalType": "uint256",
          "name": "",
          "type": "uint256"
        }
      ],
      "payable": false,
      "stateMutability": "view",
      "type": "function"
    },
    {
      "constant": true,
      "inputs": [],
      "name": "Random",
      "outputs": [
        {
          "internalType": "uint256",
          "name": "",
          "type": "uint256"
        }
      ],
      "payable": false,
      "stateMutability": "view",
      "type": "function"
    },
    {
      "constant": false,
      "inputs": [],
      "name": "RegMe",
      "outputs": [],
      "payable": false,
      "stateMutability": "nonpayable",
      "type": "function"
    },
    {
      "constant": false,
      "inputs": [
        {
          "internalType": "uint256",
          "name": "number",
          "type": "uint256"
        }
      ],
      "name": "TryNumber",
      "outputs": [],
      "payable": false,
      "stateMutability": "nonpayable",
      "type": "function"
    },
    {
      "constant": false,
      "inputs": [],
      "name": "DeadermineTheWinner",
      "outputs": [],
      "payable": false,
      "stateMutability": "nonpayable",
      "type": "function"
    },
    {
      "constant": false,
      "inputs": [],
      "name": "ClearAllData",
      "outputs": [],
      "payable": false,
      "stateMutability": "nonpayable",
      "type": "function"
    },
    {
      "constant": true,
      "inputs": [],
      "name": "GetRez",
      "outputs": [
        {
          "internalType": "uint256",
          "name": "w1nn3r",
          "type": "uint256"
        }
      ],
      "payable": false,
      "stateMutability": "view",
      "type": "function"
    },
    {
      "constant": true,
      "inputs": [],
      "name": "GetRandom",
      "outputs": [
        {
          "internalType": "uint256",
          "name": "random",
          "type": "uint256"
        }
      ],
      "payable": false,
      "stateMutability": "view",
      "type": "function"
    },
    {
      "constant": true,
      "inputs": [],
      "name": "WhoAmI",
      "outputs": [
        {
          "internalType": "uint256",
          "name": "number",
          "type": "uint256"
        }
      ],
      "payable": false,
      "stateMutability": "view",
      "type": "function"
    }
  ],
  "bytecode": "0x60806040526000600155606460085534801561001a57600080fd5b50604051610fdb380380610fdb8339818101604052602081101561003d57600080fd5b8101908080519060200190929190505050806000806101000a81548173ffffffffffffffffffffffffffffffffffffffff021916908373ffffffffffffffffffffffffffffffffffffffff16021790555050610f3d8061009e6000396000f3fe608060405234801561001057600080fd5b50600436106100b45760003560e01c806364ddffa01161007157806364ddffa014610159578063832d607c14610163578063883d1e7914610191578063c2412676146101af578063d017c11d146101f9578063dcbe481e14610203576100b4565b8063290e4a7a146100b957806337c82ada146100c35780633b3dca76146100e157806348dfcbf0146100ff57806359a5667f1461011d578063604a6fa91461013b575b600080fd5b6100c1610221565b005b6100cb61064d565b6040518082815260200191505060405180910390f35b6100e9610657565b6040518082815260200191505060405180910390f35b61010761065d565b6040518082815260200191505060405180910390f35b61012561071d565b6040518082815260200191505060405180910390f35b610143610727565b6040518082815260200191505060405180910390f35b6101616107a1565b005b61018f6004803603602081101561017957600080fd5b8101908080359060200190929190505050610809565b005b610199610ae1565b6040518082815260200191505060405180910390f35b6101b7610ae7565b604051808273ffffffffffffffffffffffffffffffffffffffff1673ffffffffffffffffffffffffffffffffffffffff16815260200191505060405180910390f35b610201610b0c565b005b61020b610f02565b6040518082815260200191505060405180910390f35b600454600654101561023f576006546004540360048190555061024d565b600454600654036004819055505b600554600654101561026b5760065460055403600581905550610279565b600554600654036005819055505b60055460045411156103795760026007819055506000809054906101000a900473ffffffffffffffffffffffffffffffffffffffff1673ffffffffffffffffffffffffffffffffffffffff1663a9059cbb600360009054906101000a900473ffffffffffffffffffffffffffffffffffffffff166002600854026040518363ffffffff1660e01b8152600401808373ffffffffffffffffffffffffffffffffffffffff1673ffffffffffffffffffffffffffffffffffffffff16815260200182815260200192505050600060405180830381600087803b15801561035c57600080fd5b505af1158015610370573d6000803e3d6000fd5b5050505061064b565b60055460045410156104795760016007819055506000809054906101000a900473ffffffffffffffffffffffffffffffffffffffff1673ffffffffffffffffffffffffffffffffffffffff1663a9059cbb600260009054906101000a900473ffffffffffffffffffffffffffffffffffffffff166002600854026040518363ffffffff1660e01b8152600401808373ffffffffffffffffffffffffffffffffffffffff1673ffffffffffffffffffffffffffffffffffffffff16815260200182815260200192505050600060405180830381600087803b15801561045c57600080fd5b505af1158015610470573d6000803e3d6000fd5b5050505061064a565b60006007819055506000809054906101000a900473ffffffffffffffffffffffffffffffffffffffff1673ffffffffffffffffffffffffffffffffffffffff1663a9059cbb600260009054906101000a900473ffffffffffffffffffffffffffffffffffffffff166008546040518363ffffffff1660e01b8152600401808373ffffffffffffffffffffffffffffffffffffffff1673ffffffffffffffffffffffffffffffffffffffff16815260200182815260200192505050600060405180830381600087803b15801561054d57600080fd5b505af1158015610561573d6000803e3d6000fd5b505050506000809054906101000a900473ffffffffffffffffffffffffffffffffffffffff1673ffffffffffffffffffffffffffffffffffffffff1663a9059cbb600360009054906101000a900473ffffffffffffffffffffffffffffffffffffffff166008546040518363ffffffff1660e01b8152600401808373ffffffffffffffffffffffffffffffffffffffff1673ffffffffffffffffffffffffffffffffffffffff16815260200182815260200192505050600060405180830381600087803b15801561063157600080fd5b505af1158015610645573d6000803e3d6000fd5b505050505b5b565b6000600754905090565b60065481565b6000600260009054906101000a900473ffffffffffffffffffffffffffffffffffffffff1673ffffffffffffffffffffffffffffffffffffffff163373ffffffffffffffffffffffffffffffffffffffff1614156106be576001905061071a565b600360009054906101000a900473ffffffffffffffffffffffffffffffffffffffff1673ffffffffffffffffffffffffffffffffffffffff163373ffffffffffffffffffffffffffffffffffffffff16141561071957600290505b5b90565b6000600654905090565b6000600a424433604051602001808481526020018381526020018273ffffffffffffffffffffffffffffffffffffffff1673ffffffffffffffffffffffffffffffffffffffff1660601b815260140193505050506040516020818303038152906040528051906020012060001c8161079b57fe5b06905090565b6000600181905550600260006101000a81549073ffffffffffffffffffffffffffffffffffffffff0219169055600360006101000a81549073ffffffffffffffffffffffffffffffffffffffff02191690556004600090556005600090556000600781905550565b6000600260009054906101000a900473ffffffffffffffffffffffffffffffffffffffff1673ffffffffffffffffffffffffffffffffffffffff161415801561088b57506000600360009054906101000a900473ffffffffffffffffffffffffffffffffffffffff1673ffffffffffffffffffffffffffffffffffffffff1614155b61089457600080fd5b600260009054906101000a900473ffffffffffffffffffffffffffffffffffffffff1673ffffffffffffffffffffffffffffffffffffffff163373ffffffffffffffffffffffffffffffffffffffff16141561098d57806004819055507f827fef85cca0a6d4071445f5fe929d007542e4690b7511eabf86f2e007679783600260009054906101000a900473ffffffffffffffffffffffffffffffffffffffff16604051808273ffffffffffffffffffffffffffffffffffffffff1673ffffffffffffffffffffffffffffffffffffffff16815260200191505060405180910390a1600160008154809291906001019190505550610a83565b600360009054906101000a900473ffffffffffffffffffffffffffffffffffffffff1673ffffffffffffffffffffffffffffffffffffffff163373ffffffffffffffffffffffffffffffffffffffff161415610a8257806005819055507f827fef85cca0a6d4071445f5fe929d007542e4690b7511eabf86f2e007679783600360009054906101000a900473ffffffffffffffffffffffffffffffffffffffff16604051808273ffffffffffffffffffffffffffffffffffffffff1673ffffffffffffffffffffffffffffffffffffffff16815260200191505060405180910390a16001600081548092919060010191905055505b5b60026001541415610ade57610a96610727565b6006819055507f6a3675dc0f1088edb8fcf0fd6261b55caf097ccf405ba0b5afc014b2f24a82586006546040518082815260200191505060405180910390a1610add610221565b5b50565b60055481565b6000809054906101000a900473ffffffffffffffffffffffffffffffffffffffff1681565b600260009054906101000a900473ffffffffffffffffffffffffffffffffffffffff1673ffffffffffffffffffffffffffffffffffffffff163373ffffffffffffffffffffffffffffffffffffffff1614158015610bb85750600360009054906101000a900473ffffffffffffffffffffffffffffffffffffffff1673ffffffffffffffffffffffffffffffffffffffff163373ffffffffffffffffffffffffffffffffffffffff1614155b610bc157600080fd5b6000600260009054906101000a900473ffffffffffffffffffffffffffffffffffffffff1673ffffffffffffffffffffffffffffffffffffffff161415610d625733600260006101000a81548173ffffffffffffffffffffffffffffffffffffffff021916908373ffffffffffffffffffffffffffffffffffffffff1602179055506000809054906101000a900473ffffffffffffffffffffffffffffffffffffffff1673ffffffffffffffffffffffffffffffffffffffff166323b872dd33306008546040518463ffffffff1660e01b8152600401808473ffffffffffffffffffffffffffffffffffffffff1673ffffffffffffffffffffffffffffffffffffffff1681526020018373ffffffffffffffffffffffffffffffffffffffff1673ffffffffffffffffffffffffffffffffffffffff1681526020018281526020019350505050602060405180830381600087803b158015610d2157600080fd5b505af1158015610d35573d6000803e3d6000fd5b505050506040513d6020811015610d4b57600080fd5b810190808051906020019092919050505050610f00565b6000600360009054906101000a900473ffffffffffffffffffffffffffffffffffffffff1673ffffffffffffffffffffffffffffffffffffffff161415610eff5733600360006101000a81548173ffffffffffffffffffffffffffffffffffffffff021916908373ffffffffffffffffffffffffffffffffffffffff1602179055506000809054906101000a900473ffffffffffffffffffffffffffffffffffffffff1673ffffffffffffffffffffffffffffffffffffffff166323b872dd33306008546040518463ffffffff1660e01b8152600401808473ffffffffffffffffffffffffffffffffffffffff1673ffffffffffffffffffffffffffffffffffffffff1681526020018373ffffffffffffffffffffffffffffffffffffffff1673ffffffffffffffffffffffffffffffffffffffff1681526020018281526020019350505050602060405180830381600087803b158015610ec257600080fd5b505af1158015610ed6573d6000803e3d6000fd5b505050506040513d6020811015610eec57600080fd5b8101908080519060200190929190505050505b5b565b6004548156fea265627a7a72315820b13632fdd0e5f20a109f44dfc813dd12a72360bc468b7f6b0569cd22bc15a8b264736f6c63430005100032",
  "source": "pragma solidity >=0.4.22 <0.9.0;\nimport \"./TokenOBT.sol\";\n\ncontract MyContract\n{\n    TokenOBT public Token;\n    uint count = 0;\n    address player1;\n    address player2;\n    uint public numb1;\n    uint public numb2;\n    uint public rand;\n    uint winner;\n    uint256 BID = uint256(100);\n\n    event WhoPushed(address player);\n    event ShowRandomVal(uint random);\n\n    constructor(address tokenAddr) public\n    {\n        Token = TokenOBT(tokenAddr);\n    }\n\n    \n    modifier isRegistered() {\n        require(msg.sender != player1 && msg.sender != player2);\n        _;\n    }\n\n    modifier isBothReg() {\n        require((int(player1) != 0) && (int(player2) != 0));\n        _;\n    }\n\n    function Random() public view returns(uint) { //Мы не знаем как это работает, но это рандомайзер и это работает\n        return uint(keccak256(abi.encodePacked(now, block.difficulty, msg.sender))) % 10;\n    }\n\n    function RegMe() isRegistered() public {\n        if (int(player1) == 0) {\n            player1 = msg.sender;\n            Token.transferFrom(msg.sender, address(this), BID);\n        }\n        else if (int(player2) == 0) {\n            player2 = msg.sender;\n            Token.transferFrom(msg.sender, address(this), BID);\n        }\n    }\n\n    function TryNumber(uint number) isBothReg() public {\n        if (msg.sender == player1) {\n            numb1 = number;\n            emit WhoPushed(player1);\n            count++;\n        } else if (msg.sender == player2) {\n            numb2 = number;\n            emit WhoPushed(player2);\n            count++;\n        }\n        if (count == 2) {\n            rand = Random();\n            emit ShowRandomVal(rand);\n            DeadermineTheWinner();\n        }\n    }\n\n    function DeadermineTheWinner() public {\n        if (rand < numb1) {\n            numb1 = numb1 - rand;\n        } else {\n            numb1 = rand - numb1;\n        }\n        if (rand < numb2) {\n            numb2 = numb2 - rand;\n        } else {\n            numb2 = rand - numb2;\n        }\n\n        if (numb1 > numb2) {\n            winner = 2;\n            Token.transfer(player2, BID * 2);\n        } else if (numb1 < numb2) {\n            winner = 1;\n            Token.transfer(player1, BID * 2);\n        } else \n        {\n            winner = 0;\n            Token.transfer(player1, BID);\n            Token.transfer(player2, BID);\n        }\n    } \n\n    function ClearAllData() public {\n        count = 0;\n        delete player1;\n        delete player2;\n        delete numb1;\n        delete numb2;\n        winner = 0;\n    }\n\n    function GetRez() public view returns (uint w1nn3r) {\n        w1nn3r = winner; \n    }\n\n     function GetRandom() public view returns (uint random) {  \n        random = rand;\n    }\n\n    function WhoAmI() public view returns (uint number) {\n        if (msg.sender == player1) number = 1;\n        else if (msg.sender == player2) number = 2;\n    }\n\n}",
  "sourcePath": "C:/Users/User/solidityGame-main/contracts/MyContract.sol",
  "compiler": {
    "name": "solc",
    "version": "0.5.16+commit.9c3226ce.Emscripten.clang"
  },
  "schemaVersion": "3.3.4",
  "updatedAt": "2021-05-31T07:43:56.761Z",
  "networkType": "ethereum",
  "devdoc": {
    "methods": {}
  },
  "userdoc": {
    "methods": {}
  }
}