{
  "contractName": "MyContract",
  "abi": [
    {
      "anonymous": false,
      "inputs": [
        {
          "indexed": false,
          "internalType": "address",
          "name": "player",
          "type": "address"
        }
      ],
      "name": "GameEvent",
      "type": "event"
    },
    {
      "anonymous": false,
      "inputs": [
        {
          "indexed": false,
          "internalType": "int256",
          "name": "winnerNumber",
          "type": "int256"
        }
      ],
      "name": "WinEvent",
      "type": "event"
    },
    {
      "constant": true,
      "inputs": [],
      "name": "choose1",
      "outputs": [
        {
          "internalType": "int256",
          "name": "",
          "type": "int256"
        }
      ],
      "payable": false,
      "stateMutability": "view",
      "type": "function"
    },
    {
      "constant": true,
      "inputs": [],
      "name": "choose2",
      "outputs": [
        {
          "internalType": "int256",
          "name": "",
          "type": "int256"
        }
      ],
      "payable": false,
      "stateMutability": "view",
      "type": "function"
    },
    {
      "constant": false,
      "inputs": [],
      "name": "RegMe",
      "outputs": [],
      "payable": false,
      "stateMutability": "nonpayable",
      "type": "function"
    }
  ],
  "bytecode": "0x608060405234801561001057600080fd5b5061028c806100206000396000f3fe608060405234801561001057600080fd5b50600436106100415760003560e01c806302e07e7d146100465780634612ee0f14610064578063d017c11d14610082575b600080fd5b61004e61008c565b6040518082815260200191505060405180910390f35b61006c610092565b6040518082815260200191505060405180910390f35b61008a610098565b005b60025481565b60035481565b6000809054906101000a900473ffffffffffffffffffffffffffffffffffffffff1673ffffffffffffffffffffffffffffffffffffffff163373ffffffffffffffffffffffffffffffffffffffff16141580156101435750600160009054906101000a900473ffffffffffffffffffffffffffffffffffffffff1673ffffffffffffffffffffffffffffffffffffffff163373ffffffffffffffffffffffffffffffffffffffff1614155b61014c57600080fd5b60008060009054906101000a900473ffffffffffffffffffffffffffffffffffffffff1673ffffffffffffffffffffffffffffffffffffffff1614156101d157336000806101000a81548173ffffffffffffffffffffffffffffffffffffffff021916908373ffffffffffffffffffffffffffffffffffffffff160217905550610255565b6000600160009054906101000a900473ffffffffffffffffffffffffffffffffffffffff1673ffffffffffffffffffffffffffffffffffffffff1614156102545733600160006101000a81548173ffffffffffffffffffffffffffffffffffffffff021916908373ffffffffffffffffffffffffffffffffffffffff1602179055505b5b56fea265627a7a723158206d88069a2541c593bebb32424b0cdf51c95f93ef5a4d21e9795aa51da0b8156764736f6c63430005100032",
  "source": "pragma solidity >=0.4.22 <0.9.0;\r\n\r\ncontract MyContract\r\n{\r\n    address player1;\r\n    address player2;\r\n    int public choose1;\r\n    int public choose2;\r\n    int winner;\r\n    int[] winnerEach;\r\n\r\n\r\n    event GameEvent(address player);\r\n    event WinEvent(int winnerNumber);\r\n    \r\n        modifier isRegistered()\r\n    {\r\n        require(msg.sender != player1 && msg.sender != player2);\r\n        _;\r\n    }\r\n\r\n    function RegMe() isRegistered() public {\r\n        if (int(player1) == 0)\r\n            player1 = msg.sender;\r\n        else if (int(player2) == 0)\r\n            player2 = msg.sender;\r\n    }\r\n\r\n    //     function MakeDesicion (int memory player1Number, int memory player2Number) view private returns (int win) {\r\n        \r\n    // }\r\n\r\n}",
  "sourcePath": "C:/Users/izmay/Laba1Truffle/contracts/MyContract.sol",
  "compiler": {
    "name": "solc",
    "version": "0.5.16+commit.9c3226ce.Emscripten.clang"
  },
  "schemaVersion": "3.3.4",
  "updatedAt": "2021-04-10T13:44:17.547Z",
  "networkType": "ethereum",
  "devdoc": {
    "methods": {}
  },
  "userdoc": {
    "methods": {}
  }
}