{
  "contractName": "MyContract",
  "abi": [
    {
      "anonymous": false,
      "inputs": [
        {
          "indexed": false,
          "internalType": "uint256",
          "name": "random",
          "type": "uint256"
        }
      ],
      "name": "ShowRandomVal",
      "type": "event"
    },
    {
      "anonymous": false,
      "inputs": [
        {
          "indexed": false,
          "internalType": "address",
          "name": "player",
          "type": "address"
        }
      ],
      "name": "WhoPushed",
      "type": "event"
    },
    {
      "constant": true,
      "inputs": [],
      "name": "numb1",
      "outputs": [
        {
          "internalType": "uint256",
          "name": "",
          "type": "uint256"
        }
      ],
      "payable": false,
      "stateMutability": "view",
      "type": "function"
    },
    {
      "constant": true,
      "inputs": [],
      "name": "numb2",
      "outputs": [
        {
          "internalType": "uint256",
          "name": "",
          "type": "uint256"
        }
      ],
      "payable": false,
      "stateMutability": "view",
      "type": "function"
    },
    {
      "constant": true,
      "inputs": [],
      "name": "rand",
      "outputs": [
        {
          "internalType": "uint256",
          "name": "",
          "type": "uint256"
        }
      ],
      "payable": false,
      "stateMutability": "view",
      "type": "function"
    },
    {
      "constant": true,
      "inputs": [],
      "name": "Random",
      "outputs": [
        {
          "internalType": "uint256",
          "name": "",
          "type": "uint256"
        }
      ],
      "payable": false,
      "stateMutability": "view",
      "type": "function"
    },
    {
      "constant": false,
      "inputs": [],
      "name": "RegMe",
      "outputs": [],
      "payable": false,
      "stateMutability": "nonpayable",
      "type": "function"
    },
    {
      "constant": false,
      "inputs": [
        {
          "internalType": "uint256",
          "name": "number",
          "type": "uint256"
        }
      ],
      "name": "TryNumber",
      "outputs": [],
      "payable": false,
      "stateMutability": "nonpayable",
      "type": "function"
    },
    {
      "constant": false,
      "inputs": [],
      "name": "DeadermineTheWinner",
      "outputs": [],
      "payable": false,
      "stateMutability": "nonpayable",
      "type": "function"
    },
    {
      "constant": false,
      "inputs": [],
      "name": "ClearAllData",
      "outputs": [],
      "payable": false,
      "stateMutability": "nonpayable",
      "type": "function"
    },
    {
      "constant": true,
      "inputs": [],
      "name": "GetRez",
      "outputs": [
        {
          "internalType": "uint256",
          "name": "w1nn3r",
          "type": "uint256"
        },
        {
          "internalType": "uint256",
          "name": "random",
          "type": "uint256"
        }
      ],
      "payable": false,
      "stateMutability": "view",
      "type": "function"
    },
    {
      "constant": true,
      "inputs": [],
      "name": "WhoAmI",
      "outputs": [
        {
          "internalType": "uint256",
          "name": "number",
          "type": "uint256"
        }
      ],
      "payable": false,
      "stateMutability": "view",
      "type": "function"
    }
  ],
  "bytecode": "0x60806040526000805534801561001457600080fd5b506108d1806100246000396000f3fe608060405234801561001057600080fd5b506004361061009e5760003560e01c806364ddffa01161006657806364ddffa01461012c578063832d607c14610136578063883d1e7914610164578063d017c11d14610182578063dcbe481e1461018c5761009e565b8063290e4a7a146100a357806337c82ada146100ad5780633b3dca76146100d257806348dfcbf0146100f0578063604a6fa91461010e575b600080fd5b6100ab6101aa565b005b6100b5610240565b604051808381526020018281526020019250505060405180910390f35b6100da610251565b6040518082815260200191505060405180910390f35b6100f8610257565b6040518082815260200191505060405180910390f35b610116610317565b6040518082815260200191505060405180910390f35b610134610391565b005b6101626004803603602081101561014c57600080fd5b81019080803590602001909291905050506103f8565b005b61016c6106ce565b6040518082815260200191505060405180910390f35b61018a6106d4565b005b610194610896565b6040518082815260200191505060405180910390f35b60035460055410156101c857600554600354036003819055506101d6565b600354600554036003819055505b60045460055410156101f45760055460045403600481905550610202565b600454600554036004819055505b600454600354111561021b57600260068190555061023e565b600454600354101561023457600160068190555061023d565b60006006819055505b5b565b600080600654915060055490509091565b60055481565b6000600160009054906101000a900473ffffffffffffffffffffffffffffffffffffffff1673ffffffffffffffffffffffffffffffffffffffff163373ffffffffffffffffffffffffffffffffffffffff1614156102b85760019050610314565b600260009054906101000a900473ffffffffffffffffffffffffffffffffffffffff1673ffffffffffffffffffffffffffffffffffffffff163373ffffffffffffffffffffffffffffffffffffffff16141561031357600290505b5b90565b6000600a424433604051602001808481526020018381526020018273ffffffffffffffffffffffffffffffffffffffff1673ffffffffffffffffffffffffffffffffffffffff1660601b815260140193505050506040516020818303038152906040528051906020012060001c8161038b57fe5b06905090565b60008081905550600160006101000a81549073ffffffffffffffffffffffffffffffffffffffff0219169055600260006101000a81549073ffffffffffffffffffffffffffffffffffffffff02191690556003600090556004600090556000600681905550565b6000600160009054906101000a900473ffffffffffffffffffffffffffffffffffffffff1673ffffffffffffffffffffffffffffffffffffffff161415801561047a57506000600260009054906101000a900473ffffffffffffffffffffffffffffffffffffffff1673ffffffffffffffffffffffffffffffffffffffff1614155b61048357600080fd5b600160009054906101000a900473ffffffffffffffffffffffffffffffffffffffff1673ffffffffffffffffffffffffffffffffffffffff163373ffffffffffffffffffffffffffffffffffffffff16141561057b57806003819055507f827fef85cca0a6d4071445f5fe929d007542e4690b7511eabf86f2e007679783600160009054906101000a900473ffffffffffffffffffffffffffffffffffffffff16604051808273ffffffffffffffffffffffffffffffffffffffff1673ffffffffffffffffffffffffffffffffffffffff16815260200191505060405180910390a16000808154809291906001019190505550610670565b600260009054906101000a900473ffffffffffffffffffffffffffffffffffffffff1673ffffffffffffffffffffffffffffffffffffffff163373ffffffffffffffffffffffffffffffffffffffff16141561066f57806004819055507f827fef85cca0a6d4071445f5fe929d007542e4690b7511eabf86f2e007679783600260009054906101000a900473ffffffffffffffffffffffffffffffffffffffff16604051808273ffffffffffffffffffffffffffffffffffffffff1673ffffffffffffffffffffffffffffffffffffffff16815260200191505060405180910390a160008081548092919060010191905055505b5b600260005414156106cb57610683610317565b6005819055507f6a3675dc0f1088edb8fcf0fd6261b55caf097ccf405ba0b5afc014b2f24a82586005546040518082815260200191505060405180910390a16106ca6101aa565b5b50565b60045481565b600160009054906101000a900473ffffffffffffffffffffffffffffffffffffffff1673ffffffffffffffffffffffffffffffffffffffff163373ffffffffffffffffffffffffffffffffffffffff16141580156107805750600260009054906101000a900473ffffffffffffffffffffffffffffffffffffffff1673ffffffffffffffffffffffffffffffffffffffff163373ffffffffffffffffffffffffffffffffffffffff1614155b61078957600080fd5b6000600160009054906101000a900473ffffffffffffffffffffffffffffffffffffffff1673ffffffffffffffffffffffffffffffffffffffff1614156108105733600160006101000a81548173ffffffffffffffffffffffffffffffffffffffff021916908373ffffffffffffffffffffffffffffffffffffffff160217905550610894565b6000600260009054906101000a900473ffffffffffffffffffffffffffffffffffffffff1673ffffffffffffffffffffffffffffffffffffffff1614156108935733600260006101000a81548173ffffffffffffffffffffffffffffffffffffffff021916908373ffffffffffffffffffffffffffffffffffffffff1602179055505b5b565b6003548156fea265627a7a72315820293dc83799b41f14c9c62f51dddf757e07e5cfd6834fc943eaef11d5a15042be64736f6c63430005100032",
  "source": "pragma solidity >=0.4.22 <0.9.0;\r\n\r\ncontract MyContract\r\n{\r\n    uint count = 0;\r\n    address player1;\r\n    address player2;\r\n    uint public numb1;\r\n    uint public numb2;\r\n    uint public rand;\r\n    uint winner;\r\n\r\n    event WhoPushed(address player);\r\n    event ShowRandomVal(uint random);\r\n    \r\n    modifier isRegistered() {\r\n        require(msg.sender != player1 && msg.sender != player2);\r\n        _;\r\n    }\r\n\r\n    modifier isBothReg() {\r\n        require((int(player1) != 0) && (int(player2) != 0));\r\n        _;\r\n    }\r\n\r\n    function Random() public view returns(uint) { //Мы не знаем как это работает, но это рандомайзер\r\n        return uint(keccak256(abi.encodePacked(now, block.difficulty, msg.sender))) % 10;\r\n    }\r\n\r\n    function RegMe() isRegistered() public {\r\n        if (int(player1) == 0)\r\n            player1 = msg.sender;\r\n        else if (int(player2) == 0)\r\n            player2 = msg.sender;\r\n    }\r\n\r\n    function TryNumber(uint number) isBothReg() public {\r\n        if (msg.sender == player1) {\r\n            numb1 = number;\r\n            emit WhoPushed(player1);\r\n            count++;\r\n        } else if (msg.sender == player2) {\r\n            numb2 = number;\r\n            emit WhoPushed(player2);\r\n            count++;\r\n        }\r\n        if (count == 2) {\r\n            rand = Random();\r\n            emit ShowRandomVal(rand);\r\n            DeadermineTheWinner();\r\n        }\r\n    }\r\n\r\n    function DeadermineTheWinner() public {\r\n        if (rand < numb1) {\r\n            numb1 = numb1 - rand;\r\n        } else {\r\n            numb1 = rand - numb1;\r\n        }\r\n        if (rand < numb2) {\r\n            numb2 = numb2 - rand;\r\n        } else {\r\n            numb2 = rand - numb2;\r\n        }\r\n\r\n        if (numb1 > numb2) {\r\n            winner = 2;\r\n        } else if (numb1 < numb2) {\r\n            winner = 1;\r\n        } else \r\n        {\r\n            winner = 0;\r\n        }\r\n    }\r\n\r\n    function ClearAllData() public {\r\n        count = 0;\r\n        delete player1;\r\n        delete player2;\r\n        delete numb1;\r\n        delete numb2;\r\n        winner = 0;\r\n    }\r\n\r\n    function GetRez() public view returns (uint w1nn3r, uint random) {\r\n        w1nn3r = winner;  \r\n        random = rand;\r\n    }\r\n\r\n    function WhoAmI() public view returns (uint number) {\r\n        if (msg.sender == player1) number = 1;\r\n        else if (msg.sender == player2) number = 2;\r\n    }\r\n\r\n}",
  "sourcePath": "C:/Users/izmay/Laba1Truffle/contracts/MyContract.sol",
  "compiler": {
    "name": "solc",
    "version": "0.5.16+commit.9c3226ce.Emscripten.clang"
  },
  "schemaVersion": "3.3.4",
  "updatedAt": "2021-04-10T16:13:10.787Z",
  "networkType": "ethereum",
  "devdoc": {
    "methods": {}
  },
  "userdoc": {
    "methods": {}
  }
}